:020000040800F2
:10000000F82F0020690200082908000825080008C8
:100010002708000815080008730A000800000000FF
:10002000000000000000000000000000A90100081E
:10003000170800080000000005020008F908000881
:10004000830200088302000883020008830200087C
:10005000830200088302000883020008830200086C
:10006000830200088302000883020008830200085C
:10007000830200088302000883020008830200084C
:10008000830200088302000883020008830200083C
:10009000830200088302000883020008830200082C
:1000A000830200088302000883020008830200081C
:1000B000830200088302000883020008830200080C
:1000C00083020008830200088302000883020008FC
:1000D00083020008690900089D090008D109000889
:1000E00083020008830200088302000883020008DC
:1000F00083020008830200088302000883020008CC
:1001000083020008830200088302000883020008BB
:1001100083020008830200088302000883020008AB
:10012000830200088302000883020008830200089B
:10013000830200088302000883020008830200088B
:10014000830200088302000883020008830200087B
:10015000830200088302000883020008830200086B
:10016000830200088302000883020008830200085B
:10017000830200088302000883020008830200084B
:100180008302000883020008DFF810D000F030FB83
:100190000048004799130008AFF30080F82F0020B3
:1001A00040BA7047C0BA70472C4B19680868B0E86D
:1001B000F04F80F30988BFF36F8F4FF0000080F39A
:1001C000118870470000000008480068006880F34C
:1001D00008884FF0000080F3148862B661B6BFF360
:1001E0004F8FBFF36F8F00DF00BF00BF08ED00E04F
:1001F000DFF80C00016841F470010160704700BF36
:1002000088ED00E0EFF30980BFF36F8F134B1A689E
:100210001EF0100F08BF20ED108A20E9F04F10608B
:1002200009B44FF0500080F31188BFF34F8FBFF334
:100230006F8F02F05DF94FF0000080F3118809BC68
:1002400019680868B0E8F04F1EF0100F08BFB0EC56
:10025000108A80F30988BFF36F8F70472800002051
:10026000EFF30580704700000648804706480047C6
:10027000FEE7FEE7FEE7FEE7FEE7FEE7FEE7FEE756
:10028000FEE7FEE70D0900088901000840EA0103C6
:100290009B0703D009E008C9121F08C0042AFAD23C
:1002A00003E011F8013B00F8013B521EF9D2704700
:1002B000D2B201E000F8012B491EFBD270470022A8
:1002C000F6E710B513460A4604461946FFF7F0FF55
:1002D000204610BD2DE9FE4F804681EA0300C00F85
:1002E0000C46009021F0004123F00045B8EB0200DD
:1002F000A94105D24046214690461C460B4602467F
:1003000023F00040104347D0270DC7F30A00C3F382
:100310000A510290401A019040286BDAC3F313008F
:1003200040F4801B0098924620B10023D2EB030AD0
:1003300063EB0B0B01985946C0F14002504600F0A8
:1003400029F906460D4650465946019A00F041F9F2
:1003500010EB08006141002487EA115284EAE77338
:100360001A4340D0009A62B3019A012A4FEA075219
:1003700015DC001B61EB02014FF0004202EA07525C
:10038000CDE90042001C41F5801132462B4600F0B9
:1003900041F903B0BDE8F08F40462146F9E7001B64
:1003A00061EB0201001C41F5801300185B4120182D
:1003B000A2F5001747EB030140EAD570B6196D416D
:1003C00011E06D084FEA360645EAC0754FEA07525C
:1003D000001B61EB0201001C41F5801149084FEA46
:1003E00030000019514132462B4603B0BDE8F04FB2
:1003F00000F001B90098012240000023D0EB020276
:1004000063EBE073009821464FEAE074B8EB00001C
:1004100061EB0401E9E783F000435BE781F0004111
:1004200058E72DE9FE4F81EA030404F0004421F06F
:10043000004100944FF0000B23F0004350EA010408
:100440005ED052EA03045BD0C3F30A54C1F30A55E9
:100450002C44A4F2F3340194A0FB0254C1F3130121
:1004600041F48011C3F3130343F4801301FB0244EE
:1004700000FB034E840A970A44EA815447EA8357F3
:10048000A4FB076802958D0A05FB07854FEA932CAC
:1004900004FB0C542705029D4FEA065847EA16371D
:1004A000B5EB08056EEB070C870E920E47EA811735
:1004B00042EA8312A7FB0201B6EB0B0164EB0004D6
:1004C0002B0D43EA0C335E1844EB1C50DA465146C0
:1004D000E7FB0201C5F313044FEA0B3343EA14535D
:1004E0004FEA0432019C43EA0603A4F10C0402948F
:1004F000009CCDE900B400F08DF803B0BDE8F08FAA
:1005000000200146F9E730B50B46014600202022C5
:10051000012409E021FA02F59D4205D303FA02F510
:10052000491B04FA02F52844151EA2F10102F1DC70
:1005300030BD2DE9F05F0546002092469B46884677
:100540000646814640241BE028464146474622464F
:1005500000F02FF853465A46C01A914110D3114665
:100560001846224600F016F82D1A67EB01084F4690
:1005700022460120002100F00DF817EB00094E4142
:10058000201EA4F10104DFDC484631462A464346DA
:10059000BDE8F09F202A04DB203A00FA02F1002097
:1005A00070479140C2F1200320FA03F319439040B1
:1005B0007047202A04DB203A21FA02F0002170471C
:1005C00021FA02F3D040C2F12002914008431946BB
:1005D0007047202A06DBCB17203A41FA02F043EAA3
:1005E000E07306E041FA02F3D040C2F120029140EC
:1005F00008431946704710B5141E73F1000408DA59
:10060000401C41F1000192185B411A4301D120F0D6
:10061000010010BD2DE9F04D92469B4611B1B1FA93
:1006200081F202E0B0FA80F220329046FFF7B2FF8A
:1006300004460F4640EA0A0041EA0B0153465A4677
:10064000084313D0114653EA010019D0C8F1400203
:100650005046FFF7AEFF05460E4650465946424605
:10066000FFF798FF084305D0012004E020463946F3
:10067000BDE8F08D0020054346EAE0762C43374381
:100680000A986305E40AA0EB08000022FD0A44EA88
:1006900047540A3002D500200146E9E70105101948
:1006A0006941DDE9084500196941BDE8F04DA2E75F
:1006B0002DE9F04D81EA030404F0004B21F00045E0
:1006C00014464FF0000A23F0004150EA050220D002
:1006D00054EA01021DD0C5F30A570246C5F31303BD
:1006E000C1F31300C1F30A5640F4801543F480139C
:1006F000A7EB0608101BD64608F2FD3873EB050081
:1007000002D308F1010801E092185B41B8F1000F33
:1007100003DA00200146BDE8F08D00204FF480117F
:10072000064684460EE0171B73EB050705D3121B24
:1007300063EB050306434CEA010C49084FEA30001D
:1007400092185B4150EA0107EDD152EA030012D042
:1007500082EA040083EA0501084305D0101BAB417F
:1007600006D20122002306E000224FF0004302E0FF
:100770006FF0010253101AEB06004CEB085110EB1E
:100780000A0041EB0B01BDE8F04DFFF734BFC1F3A8
:100790000A52C1F3130140F2FF3341F480119A422F
:1007A00002DA00200146704740F233439A42A2F237
:1007B000334202DC5242FFF7FCBEFFF7EBBE000003
:1007C00030B5041E71F1000404DB4FF000444042D8
:1007D00064EB0101141E73F1000405DB1C464FF0AD
:1007E0000043524263EB0403994208BF904230BD7C
:1007F000064C074D06E0E06840F0010394E807006E
:1008000098471034AC42F6D3FFF7C2FC1030000812
:1008100030300008FEE77047002A01D0018370479E
:1008200041837047FEE7FEE7704700000249084336
:1008300002490860704700000000FA050CED00E076
:100840000CB50022019200922749086840F48030DC
:1008500008604FF4A063086800F40030009001982D
:10086000401C0190009810B901989842F3D1086893
:10087000800302D50120009000E00092009801283A
:1008800031D119484030026842F080520260174866
:10089000026842F480420260134808300268026035
:1008A000026842F400420260026842F4A052026010
:1008B000021F0F4B13600A6842F080720A600A68D8
:1008C0009201FCD50B4A40F205611160016821F0EC
:1008D00003010160016841F0020101600168C1F398
:1008E00081010229FAD10CBD00380240007000409D
:1008F00008544007003C024010B502F0E7F8012818
:1009000003D0BDE8104001F0D9BE10BD10B51248AB
:10091000016841F4700101601048016841F0010173
:1009200001600E4A00210832116002680C4B1A4027
:100930000260031D0B4A1A60026822F480220260E2
:1009400006480C300160FFF77BFF03494FF0006061
:100950008039086010BD000088ED00E000380240DA
:10096000FFFFF6FE1030002470B50A4D40F2255608
:100970003146284600F055F801280AD1284600F0F3
:1009800070F8054C20703146284600F03BF80120F5
:10099000607070BD001001402000002070B50A4D4D
:1009A00040F225563146284600F03BF801280AD18E
:1009B000284600F056F8054C60703146284600F095
:1009C00021F80120207070BD00440040220000206A
:1009D00070B50A4D40F225563146284600F021F800
:1009E00001280AD1284600F03CF8054C60703146D9
:1009F000284600F007F80120207070BD0048004034
:100A00002400002040F66A120A0A01219140C943DD
:100A1000018070470246002012880A4200D001205F
:100A2000704770B5002440F66A12C1F3421301F01A
:100A30001F05012606FA05F2012B0CD0022B0DD062
:100A4000838A1340090A8E40008830400BB100B100
:100A50000124204670BD83891340F3E7038A1340C5
:100A6000F0E78088C0F308007047C1F30801818077
:100A70007047FEE70FB4054B10B503A9044A02986E
:100A800000F0DAF810BC5DF814FB00004113000818
:100A9000A400002002E008C8121F08C1002AFAD1F1
:100AA00070477047002001E001C1121F002AFBD1EE
:100AB000704700002DE9FF5F82B00021DDE90430BE
:100AC000020DDDF840B0034318D044F61050A2F2F6
:100AD000FF3242431514119801281FD0A5EB0B00DB
:100AE000401C5FEA000A4FF000064E4FDFF83891D5
:100AF000B046504615D5CAF1000413E01198012400
:100B00004AA3012801D16FEA0B010298119AC0E9AA
:100B10000031C0E9024206B0BDE8F09FCBF1000011
:100B2000DFE704460021404A491842EB0450CDE972
:100B3000001012E0E00707D032463B4640464946E7
:100B4000FFF76FFC8046894632463B461046194601
:100B5000FFF767FC06460F466410002CEAD1DDE97A
:100B60000401DDE90023BAF1000F06DAFFF759FCB2
:100B700042464B46FFF755FC05E0FFF799FD42461C
:100B80004B46FFF795FD04460E460022284BFFF723
:100B900017FE03D84FF0FF30014607E00022254B37
:100BA00020463146FFF796FBFFF7F1FD102409E0E0
:100BB000002C0ADB0A220023FFF7BBFC039B303228
:100BC0001A55641E50EA0102F2D1641C039AC4F162
:100BD00011031444119A012A03D0012208430DD1B4
:100BE0000AE0084304D000204FF0110B119072E787
:100BF000A3EB0B056D1E0DE05B4504DD4FF000021D
:100C000005F1010504E003DA4FF00002A5F101054A
:100C1000002AECD002981199C0E90231C0E90045E0
:100C200079E70000000014400000F03F30000000B1
:100C30000000F0430000E03F2DE9FF4F95B09A46D9
:100C4000884606460025EEE1252877D10024274670
:100C5000F94A0121039400E0044316F8013F203BC8
:100C600001FA03F01042F7D130782A2811D06FF042
:100C70002F033078A0F13002092A16D8039A44F0E5
:100C8000020402EB820203EB42021044761C039042
:100C9000EFE758F8042B0392002A03DA504244F499
:100CA0000054039044F00204761C30782E2816D1AC
:100CB00016F8010F44F004042A280DD06FF02F021B
:100CC0003078A0F13003092B09D807EB870302EB3A
:100CD0004303C718761CF3E758F8047B761C30787A
:100CE0006C280FD006DC4C2817D068280DD06A2855
:100CF00014D104E0742810D07A280FD10DE044F408
:100D000000140AE044F4801401E044F440147278C2
:100D1000824202D104F58014761C761C3078662855
:100D20000BD013DC582877D009DC002875D0452873
:100D3000F6D04628F4D047281AD193E118E063286A
:100D400035D0642879D0652812D18BE1702873D012
:100D500008DC6728F1D069286FD06E280DD06F2885
:100D600006D1ACE073282CD0752874D0782853D0E5
:100D70005246179990476D1C54E1C4F30250022863
:100D800009D003280DD0D8F8001004280DD00D602C
:100D900008F1040846E1D8F80010EA17C1E900524A
:100DA000F6E7D8F800100D80F2E70D70F0E718F8BC
:100DB000041B8DF8001000208DF80100EB46012087
:100DC00003E058F804BB4FF0FF3061074FF000011B
:100DD00002D40DE009F101018946B9420FDA8145DB
:100DE000F8DB1BF809100029F4D108E009F1010132
:100DF00089468142FADB1BF809100029F6D10398D5
:100E00005346A0EB090721463846179A00F080FAAE
:100E1000284400EB090507E044E008E10DE01BF879
:100E2000010B524617999047B9F10109F7D2534681
:100E300021463846179AF2E039E00A21C4F30252FB
:100E40004FF0000B0091022A06D058F8040BC1178E
:100E5000032A09D00AE023E008F1070020F0070286
:100E6000F2E80201904605E000B2C117042A01D160
:100E700040B2C117002906DA0A460021404261EB60
:100E800002012D2202E0220504D52B228DF8042038
:100E9000012203E0E20701D02022F7E7914657E064
:100EA0000A2100E010214FF0000B00910BE010210F
:100EB0004FF0000B44F004040827009103E00820E1
:100EC0004FF0000B0090C4F30252022A05D058F8EC
:100ED000040B0021032A08D008E008F1070020F0E5
:100EE0000702F2E80201904603E080B2042A00D132
:100EF000C0B24FF0000922072AD53278702A07D0F5
:100F0000DDF800C08CF0100C5CEA0B0C05D00EE094
:100F100040228DF80420012208E050EA010306D0A7
:100F200030238DF804308DF8052002229146009B75
:100F300083F0080353EA0B030AD150EA010201D1FE
:100F4000620705D530228DF804204FF001097F1E7D
:100F50003278582A04D039A20C920CAA02920BE0E3
:100F60003BA2F9E75B46009AFFF7E3FA0C9B9B5C18
:100F7000029A521E0292137050EA0102F2D10298B4
:100F800004A9081A00F1200B600702D524F480346C
:100F900000E001275F4502DDA7EB0B0000E0002029
:100FA00000EB0B01009003984944401A0390E003C2
:100FB00006D453462146179A039800F0A9F9054430
:100FC000002706E001A85246C05D179990476D1CA6
:100FD0007F1C4F45F6DBE0030CD553462146179A9C
:100FE000039800F095F9054404E030205246179923
:100FF00090476D1C0099481E00900029F5DC08E020
:101000000298029952460078491C0291179990471C
:101010006D1CBBF10001ABF1010BF1DC5BE100F0F9
:1010200065F90544761C307800287FF40DAE19B0C0
:101030002846BDE8F08F0000092801003031323326
:101040003435363738396162636465660000000004
:1010500030313233343536373839414243444546EE
:1010600000000000600700D4062708F1070020F008
:101070000700F0E80223804603F0004C5FEA0C0012
:1010800001D097A009E0200501D596A005E0E00772
:1010900001D095A001E0AFF24C001390307823F01E
:1010A000004365280CD006DC452809D046281DD011
:1010B00047287FD13BE0662818D067287AD136E0F0
:1010C0000021112F01DB112000E0781CCDE9000187
:1010D00004A90CA8FFF7EEFCDDE90D010C9A4FF016
:1010E000000B07F10109109200914EE04FF0004013
:1010F0000097CDE9011004A90CA8FFF7DBFCDDE99E
:101100000D020C9B0F994FF0000B9146109300922B
:1011100011B9791C00EB0109B7EB090003D4C0F148
:10112000FF3B07F10109A9EB0700019042E0012F05
:1011300000DA01270021112F01DD112000E03846DF
:10114000CDE9000104A90CA8FFF7B4FCDDE90D010D
:101150000C9A00914FF0000BB946109221070FD462
:10116000009A4A4503DA914601E0A9F10109B9F173
:10117000010F05DD109AA9F10101515C3029F4D06D
:10118000B84202DA10F1040F03DA0121CDE90110AF
:1011900010E0002803DC8344A9EB000102E0411CBD
:1011A000494500DD8946A0EB0B00401C01904FF043
:1011B00000400290200705D40198484502DB4FF01B
:1011C000FF30019000208DF84B0002980DF14B0785
:1011D000B0F1004F25D002200C902B200D900298EA
:1011E00000280CDA404202902D200D9007E00A21E1
:1011F0000298FFF788F93031029007F8011D0C9929
:10120000481E0C900029F2DC02980028EFD1791ECC
:101210000D980870307800F0200040F0450007F885
:10122000020D11A8C01BC01D02901398007800B1D8
:10123000012000EB0901019801EBE07102980144E3
:101240000398401A401E0390E00306D453462146FB
:10125000179A039800F05CF805441398007818B1C9
:101260005246179990476D1CE00323D553462146FB
:10127000179A039800F04CF805441BE0BBF1000FEF
:1012800007DB0098584504DD1098179910F80B00FB
:1012900001E0179930205246904701980BF1010B5D
:1012A000401E05F10105019004D12E2052461799E8
:1012B00090476D1CB9F10001A9F10109DEDC05E0E0
:1012C00017F8010B5246179990476D1C0299481E5A
:1012D00002900029F4DC53462146179A03989EE6B3
:1012E0002D0000002B000000200000002DE9F0413F
:1012F000044600251E461746880404D405E03946F6
:101300002020B0476D1C641EF9D52846BDE8F08149
:101310002DE9F041044600251E469046C80301D53C
:10132000302700E02027880404D505E041463846F0
:10133000B0476D1C641EF9D52846BDE8F081000059
:1013400070B50446064DE1B22846FFF78EFB8021BA
:101350002846FFF75FFB0028F9D0204670BD00004B
:10136000001001401CB507480121CDE90010002301
:10137000802205A1074801F075FBBDE81C4001F083
:1013800061B800001400002073746172745F7461AE
:10139000736B0000091E000810B54FF44070FFF792
:1013A00045FAFFF7DFFF002010BD00002DE9F041F6
:1013B00004460F46204DEE682968002081F8590048
:1013C0002868001D00F07CFD38B9286890F82C10C2
:1013D00001208840296981432961601C15D1A7B18A
:1013E000164948682A68906082682B68DA602A6823
:1013F0008368121D5A602A68121D82602868416144
:101400000868401C0860BDE8F081344428684460E6
:10141000B44206D22968E86B091DBDE8F04100F02E
:1014200077BD2968A86B091D00F072FDA86A844287
:10143000E9D2AC62E7E7000028000020B8030020F2
:1014400070B5044600F088FD254DA868401CA860D2
:10145000286810B1686938B10CE02C60A8680128D0
:1014600008D100F0A5F905E02868E16AC06A884261
:1014700000D82C60686A401C68626064E06A0121E0
:101480002A69814011432961164A00EB800002EB72
:1014900080004068A0608168E1608368211D596018
:1014A0008160E06A00EB800002EB8001616152F82C
:1014B0002010491C42F8201000F090FD68690028B7
:1014C0000CD02868E16AC06A884207D206494FF00A
:1014D00080500860BFF34F8FBFF36F8F70BD000067
:1014E00028000020E800002004ED00E010B500F026
:1014F00033FD0E4C2068A0B90D4800F0FBFC0C48F1
:10150000143000F0F7FC0A48E0601430206100223B
:101510001021052001F0E8F8206010B105A100F0CD
:10152000FFFDBDE8104000F059BD0000680000203C
:10153000CC030020546D72510000000070B50C4DBA
:101540000C4E11E000F008FDF068C468201D00F0AA
:10155000B7FCA868401EA8606868401E686000F07C
:101560003DFD204600F053F868680028EAD170BDC0
:1015700028000020A403002030B40B46026C002A8F
:101580000CD0C1681144C1608468A14201D30168D4
:10159000C160C16830BC1846FEF778BE30BC7047E9
:1015A0002DE9F041044617460026A56B226C002A5F
:1015B00010D0C7B1E068FEF769FEE168206C091A37
:1015C000E1602268914202D2A168081AE060022F0D
:1015D00016D017E02068A8B9A06801F039FB0646CC
:1015E0000020A0600EE06068FEF750FE216C60688D
:1015F00008446060A168884204D32068606001E00C
:1016000005B16D1E6D1CA5633046BDE8F08110B5B7
:101610000446206B00F01CFD2046BDE8104000F0A1
:1016200017BD00000749CA681168002904D00021CD
:10163000016019B1002070470121F9E7D068006806
:1016400070470000680000204FF420510E48420708
:1016500006D0C01D20F007000B49411AC1F52051EA
:101660000A4B186000225A600144083921F0070132
:10167000143B19604A600A600A1A426001604068BF
:101680009860586070470000F4030020900000202C
:10169000074E4FF08054074DFFF750FF3068012888
:1016A000FAD92C60BFF34F8FBFF36F8FF4E70000C0
:1016B000E800002004ED00E070B51D46049C002900
:1016C0000BD02260E06321640121204601F04CF838
:1016D00084F850500020A06470BD2460F2E7000040
:1016E0002DE9F047DDE908580A9C81460E46174669
:1016F0009A46B900A522206BFEF7DAFD206B7F1E0B
:1017000000EB870020F00707780705D040F25D3234
:101710001BA123A0FFF7AEF966B100202218315CAF
:1017200082F83410315C11B1401C1028F6D300202F
:1017300084F84300202D05D340F2923210A118A066
:10174000FFF798F9202D00D31F25E562E564201DE1
:1017500000F0DBFB04F1180000F0D7FB2461C5F1B9
:101760002000A061646252464946384600F03AFBC8
:101770002060B8F1000F01D0C8F80040BDE8F08744
:101780002E2E5C6D6964646C65776172655C46726F
:10179000656552544F535C7461736B732E63000024
:1017A0004572726F723A2025732C2025640D0A0051
:1017B00070B50024114D04EB840005EB800000F0AF
:1017C00099FB641C202CF6D30D4800F093FB0C48C9
:1017D000143000F08FFB0A48283000F08BFB0848DB
:1017E0003C3000F087FB0648503000F083FB054892
:1017F000034981631431C16370BD0000E80000201B
:10180000680300202800002030B5134900E011468D
:101810000A688242FBD34B685C18844203D140685B
:101820001844486008460D6844682318AB420DD13F
:10183000094B143B1B689A4206D05268224442600E
:101840000A681268026002E0036000E00260814200
:1018500000D0086030BD00009000002070B500246A
:10186000416000610C4D91420AD8D11A82699142BF
:1018700001D301240EE0011D286900F049FB09E0B5
:101880009A4203D2994201D3012403E0011DE86882
:1018900000F03EFB204670BD6800002010B50446F5
:1018A00000F05AFBA06B20B1002400F097FB20460B
:1018B00010BD0124F9E70000F1B50098846C002602
:1018C000002C05D140F6E3321BA123A0FFF7D2F88C
:1018D000A06BE16B884205D340F6E43216A11EA04E
:1018E000FFF7C8F8A06BE16B884222D294F945500B
:1018F000002269462046FFF753FE0646681C06D0C4
:1019000000F0F2FA854214D27F2D09D00EE0606A11
:1019100078B104F1240001F00BFA50B1012608E07F
:1019200040F6044204A10CA0FFF7A4F86D1C84F853
:1019300045503046F8BD00002E2E5C6D6964646C25
:1019400065776172655C4672656552544F535C7190
:10195000756575652E6300004572726F723A2025B9
:10196000732C2025640D0A0070B505460E460D48FF
:10197000C068C068C468201D00F0A2FA94F828006E
:10198000410705D532462946204600F0D5F803E048
:1019900000F0FE0084F828002046216ABDE870406F
:1019A000084700006800002070B586B03A4E6AE033
:1019B0000298002803DADDE9032005999047029890
:1019C000002860DB049C606910B1201D00F078FAEB
:1019D00001A800F0D5F8054602980A2853D2DFE89E
:1019E00000F0520505292F460505292F94F82800F7
:1019F00040F0010084F828000398A16903460144DF
:101A00002A462046FFF72AFF00283CD094F82800F9
:101A1000410707D50398A1692A460144204600F0F2
:101A20008BF803E000F0FE0084F82800216A2046CD
:101A3000884728E014F8280F00F0FE00207022E00C
:101A400094F8280040F0010084F828000398A06171
:101A500028B940F25E3211A118A0FFF70BF8A06977
:101A60002B4641192A462046FFF7F8FE0BE094F872
:101A70002800810703D4204600F0EAFA03E000F0D2
:101A8000FE0084F82800002202A9306800F0DEFE83
:101A900000288DD106B070BD680000202E2E5C6D30
:101AA0006964646C65776172655C46726565525401
:101AB0004F535C74696D6572732E63004572726F6B
:101AC000723A2025732C2025640D0A00F8B50646CD
:101AD0000D4600F005FD684600F052F804460098F7
:101AE00010B101F0ABF9F8BD45B9A64206D801F036
:101AF000A5F921463046FFF737FFF8BD0C481DB168
:101B00000169096891B10025311B2A46006800F07F
:101B100045FB01F093F90028EFD106494FF08050C2
:101B20000860BFF34F8FBFF36F8FF8BD0125EBE760
:101B30006800002004ED00E070B505460C4616462E
:101B400004E0A8690444296A28468847A86923460E
:101B5000011932462846FFF781FE0028F1D170BDF9
:101B60000648816B0968002904D0816BC96809683F
:101B7000816270474FF0FF3181627047280000207A
:101B800070B5054600F0B0FF0446074EB0688442C9
:101B900004D200F00BF80120286001E0002028604A
:101BA000B460204670BD00006800002070B5094C8C
:101BB0004FF0FF3504E0C06800682946FFF7D4FE07
:101BC000E0680268002AF6D1E0682169E1602061DE
:101BD00070BD00006800002008484068401C04D028
:101BE000EC2207A114A0FEF745FF502080F31188D6
:101BF000BFF34F8FBFF36F8FFEE700009800002008
:101C00002E2E5C6D6964646C65776172655C4672EA
:101C1000656552544F535C706F727461626C655CA1
:101C2000525644535C41524D5F434D34465C706F95
:101C300072742E63000000004572726F723A2025A4
:101C4000732C2025640D0A0008B56846FFF7EAFCEE
:101C50000099FFF73BFFFFF7A7FEF6E72DE9F041FC
:101C6000044600F079F994F9455004F1240612E095
:101C7000A06C30B12046FFF71FFE50B100F068FBAA
:101C800007E0606A48B1304601F052F808B100F050
:101C90005FFB6D1E6DB2002DEADC4FF0FF3684F85D
:101CA000456000F09BF900F057F994F9445004F1B5
:101CB000100709E0206948B1384601F039F808B149
:101CC00000F046FB6D1E6DB2002DF3DC84F844601D
:101CD000BDE8F04100F082B92DE9F041054600264B
:101CE00000F0FEFB2D4F386808B9FFF7ADFC4DB191
:101CF00005F00700C0F11000C1438D4201D8054432
:101D000000E00025002D3CDD7868854239D8234964
:101D100014310846046801E0214604466068A84280
:101D200002D220680028F7D13868844229D00E6892
:101D30000836206808606068401B102811D904EB41
:101D400005085FEA487004D0DC2215A121A0FEF747
:101D500091FE6068401BC8F8040065604046FFF7CC
:101D600053FD61687868401A7860BA68904200D282
:101D7000B86041F00040606000202060F868401CBE
:101D8000F86001F05BF8700705D04FF48E7204A183
:101D900010A0FEF76FFE3046BDE8F0817C00002009
:101DA0002E2E5C6D6964646C65776172655C467249
:101DB000656552544F535C706F727461626C655C00
:101DC0004D656D4D616E675C686561705F342E6353
:101DD000000000004572726F723A2025732C202596
:101DE000640D0A0024384FF08073036221F0010172
:101DF000C1610449816142606FF0020140F820191D
:101E000070470000D91B00081CB500F0A5F80D486C
:101E10000124CDE90040002380220BA10C4800F0F2
:101E200021FE08480023001DCDE90040802209A1C1
:101E30000A4800F017FE002000F012FABDE81C402E
:101E400000F0CCB8180000207461736B3100000002
:101E5000611E00087461736B32000000911E00085F
:101E60000A4D4FF4FA764FF48064304600F0BAF928
:101E7000012221462846FEF7CFFC002221462846B3
:101E8000FEF7CAFC304600F0ADF9EEE70000024074
:101E90000A4D4FF4FA764FF48064304600F0A2F910
:101EA000012221462846FEF7B7FC0022214628469B
:101EB000FEF7B2FC304600F095F9EEE70000024074
:101EC0000169D0E901329A60D0E901235A604A6879
:101ED000824201D182684A60002202610868401E85
:101EE000086008687047000001488068704700007B
:101EF0002800002000F1080141604FF0FF328260AD
:101F0000C1600161002101607047002101617047DB
:101F100030B50C68621C02D000F1080202E00269D0
:101F200004E01A4653681D68A542FAD953684B600D
:101F300099608A60516008610168491C016030BD88
:101F400042684A6093688B60936859609160086149
:101F50000168491C01607047502080F31188BFF36D
:101F60004F8FBFF36F8F09494868401C48600128B4
:101F70000AD10748006810F0FF0F05D040F2B912EF
:101F800004A112A0FEF776BD704700009800002063
:101F900004ED00E02E2E5C6D6964646C65776172FF
:101FA000655C4672656552544F535C706F72746124
:101FB000626C655C525644535C41524D5F434D34F4
:101FC000465C706F72742E63000000004572726F81
:101FD000723A2025732C2025640D0A0010B5094C97
:101FE0006068002805D14FF4E07207A114A0FEF745
:101FF00041FD6068401E6060002801D180F31188B7
:1020000010BD0000980000202E2E5C6D6964646C89
:1020100065776172655C4672656552544F535C70BA
:102020006F727461626C655C525644535C41524DF0
:102030005F434D34465C706F72742E630000000085
:102040004572726F723A2025732C2025640D0A00A8
:1020500070B500282CD0083804466068002805DBDD
:1020600040F22F1213A120A0FEF704FD206828B132
:102070004FF498720FA11CA0FEF7FCFC60680028CA
:1020800016DA2168002913D120F00040606000F0CA
:1020900027FA194D60686968084468602046FFF7B0
:1020A000B3FB2869401C2861BDE8704000F0C6BE43
:1020B00070BD00002E2E5C6D6964646C6577617282
:1020C000655C4672656552544F535C706F72746103
:1020D000626C655C4D656D4D616E675C68656170D5
:1020E0005F342E63000000004572726F723A202543
:1020F000732C2025640D0A007C0000204FF0E020A6
:1021000000210161816105494FF47A720968B1FBD0
:10211000F2F1491E41610721016170470000002072
:1021200070B505460E460024002D05D140F6D82294
:102130000DA115A0FEF79EFC8EB10022164800EB03
:10214000C2035968A94202D100EBC20407E01CB9DE
:1021500050F8321001B91C46521C082AEFD3002C4B
:1021600001D02660656070BD2E2E5C6D6964646C64
:1021700065776172655C4672656552544F535C7158
:10218000756575652E6300004572726F723A202581
:10219000732C2025640D0A00A800002070B50446A9
:1021A0000D461646FFF7D8FE94F944304FF0000074
:1021B0005B1C01D184F8440094F94510491C01D1FD
:1021C00084F84500FFF70AFFA06B28B9324629467C
:1021D00004F1240000F0F4F82046BDE87040FFF759
:1021E0003DBD000010B504460020002C10D00E4864
:1021F000406B28B140F21C520CA114A0FEF73AFC2F
:1022000000F06EF900212046FFF7D0F800F016FE2E
:10221000002807D111494FF080500860BFF34F8F5D
:10222000BFF36F8F10BD0000280000202E2E5C6DC4
:102230006964646C65776172655C46726565525469
:102240004F535C7461736B732E6300004572726F41
:10225000723A2025732C2025640D0A0004ED00E05D
:1022600070B50446FFF778FE254D04B92C68201D93
:10227000FFF726FE58B9E06A224A00EB800152F8C7
:10228000211021B901218140286988432861A06A71
:1022900018B104F11800FFF713FE686A401C686269
:1022A0002868844207D1211D1748FFF749FE686856
:1022B000401C686004E0A868401EA860FFF750FC5E
:1022C000FFF78CFE2868844202D02046FFF79FF972
:1022D0006869002812D0286884420FD1686B28B141
:1022E00040F2AF4209A111A0FEF7C4FB13494FF021
:1022F00080500860BFF34F8FBFF36F8F70BD000039
:1023000028000020E8000020A40300202E2E5C6D91
:102310006964646C65776172655C46726565525488
:102320004F535C7461736B732E6300004572726F60
:10233000723A2025732C2025640D0A0004ED00E07C
:1023400002490A6A0260C96841607047280000209B
:1023500001490120C86170472800002070B504467B
:102360000D46002C05D140F60E4208A10FA0FEF745
:1023700081FB1248016820461831FFF7C9FD284645
:10238000BDE870400121FFF711B800002E2E5C6DF2
:102390006964646C65776172655C46726565525408
:1023A0004F535C7461736B732E6300004572726FE0
:1023B000723A2025732C2025640D0A002800002085
:1023C00070B504460D461646002C05D140F6444231
:1023D0000FA117A0FEF74EFB606819490A68D0618B
:1023E00082680B681A620A68836818325A600A6841
:1023F00018328260086884622068401C20600EB138
:102400004FF0FF3531462846BDE87040FEF7CEBF9D
:102410002E2E5C6D6964646C65776172655C4672D2
:10242000656552544F535C7461736B732E63000087
:102430004572726F723A2025732C2025640D0A00B4
:10244000280000207CB516480025CDE900502B4619
:10245000802214A1154800F005FB012801D100F0ED
:1024600099FD0F4C2C3C012802D0401C10D015E0E7
:10247000502080F31188BFF34F8FBFF36F8F4FF061
:10248000FF30A06201206061E56000F077F805E0B0
:1024900040F6120206A10EA0FEF7ECFA206B7CBDFE
:1024A0005400002049444C450000000091160008EB
:1024B0002E2E5C6D6964646C65776172655C467232
:1024C000656552544F535C7461736B732E630000E7
:1024D0004572726F723A2025732C2025640D0A0014
:1024E0000248416B491C41637047000028000020EE
:1024F00070B5144D686B002802D00120E86170BDF2
:102500000020E8612869B0FA80F0C0F11F000E4E8B
:1025100000EB800456F8240028B940F6F6320BA1EF
:1025200012A0FEF7A7FA06EB8400416849684160F3
:1025300000F10802914201D1496841604068C068D9
:10254000286070BD28000020E80000202E2E5C6D61
:102550006964646C65776172655C46726565525446
:102560004F535C7461736B732E6300004572726F1E
:10257000723A2025732C2025640D0A007CB5384C56
:1025800021683848814205D14FF4A37236A144A096
:10259000FEF770FA20683349491E884205D140F29F
:1025A000471231A13EA0FEF765FA414D287801900F
:1025B000FF202870287800909DF800009DF80010FA
:1025C00000F0F000884205D04FF4B07226A134A08C
:1025D000FEF750FA9DF80000364C00F050002070D5
:1025E0000720A06006E0A068401EA0609DF80000E3
:1025F000400000909DF800000006F4D4A068032875
:1026000005D04FF4BA7218A125A0FEF733FAA068DE
:10261000032805D040F27D1213A121A0FEF72AFA6B
:10262000207A000200F4E060A060019828700C4855
:102630002030016841F470010160016841F070418F
:102640000160FFF75BFD00206060FDF7D1FD1A48D7
:10265000016841F040410160FDF7B6FD00207CBDFE
:1026600000ED00E071C20F412E2E5C6D6964646C58
:1026700065776172655C4672656552544F535C7054
:102680006F727461626C655C525644535C41524D8A
:102690005F434D34465C706F72742E63000000001F
:1026A0004572726F723A2025732C2025640D0A0042
:1026B00000E400E09800002034EF00E010B5502066
:1026C00080F31188BFF34F8FBFF36F8F00F012FAC2
:1026D00018B104494FF080500860002080F3118841
:1026E00010BD000004ED00E0F8B505460E461746A3
:1026F0000024002D17D0601EB0FBF5F0B04212D3BD
:1027000005FB06F010F1550F0DD85430FFF7E4FA31
:10271000044674B1224654323B4631462846009462
:10272000FEF7CAFF05E04FF4F27203A10AA0FEF71C
:10273000A1F92046F8BD00002E2E5C6D6964646C22
:1027400065776172655C4672656552544F535C7182
:10275000756575652E6300004572726F723A2025AB
:10276000732C2025640D0A002DE9F04104460F4624
:102770000125002C05D14FF4977227A12EA0FEF75A
:1027800079F920003CD0E06BC8B34FF0FF36B6FBC0
:10279000F0F1206C814233D3FFF7DEFBD4E90F2048
:1027A000216802FB0011A1600021A1632168616022
:1027B000E06B2268216C401E00FB0121E16084F87F
:1027C000446084F8456004F1100047B1FFF792FBC4
:1027D00004F12400FFF78EFBFFF700FC11E02169F4
:1027E0000029F9D000F0A4FA0028F5D016494FF0DE
:1027F00080500860BFF34F8FBFF36F8FECE7FFE7A8
:1028000000252DB940F2631203A10BA0FEF732F9A7
:102810002846BDE8F08100002E2E5C6D6964646C72
:1028200065776172655C4672656552544F535C71A1
:10283000756575652E6300004572726F723A2025CA
:10284000732C2025640D0A0004ED00E02DE9F74704
:1028500083B004468A460026002C05D140F26B5214
:1028600044A14CA0FEF706F9BAF1000F07D1206C85
:1028700028B140F26F523FA146A0FEF7FBF800F0EE
:1028800025F938B9059828B140F2745239A141A010
:10289000FEF7F0F800274FF08058DFF80891FFF7B7
:1028A0005BFBA56BC5B151462046FEF765FE6D1E6C
:1028B000A563206950B104F1100000F039FA28B185
:1028C000C9F80080BFF34F8FBFF36F8FFFF786FB10
:1028D000012006B0BDE8F087059808B126B107E0F1
:1028E000FFF77CFB0020F4E701A8FFF729FD012694
:1028F000FFF774FBFFF7F4FDFFF72EFB94F944009C
:10290000401C01D184F8447094F94500401C01D169
:1029100084F84570FFF762FB05A901A800F044F8B0
:1029200058B12046FFF79AF900F088FA2046FEF7E2
:10293000B5FF0028B3D00020CBE72046FEF7AEFF5E
:1029400090B104F124000599FFF708FD2046FFF738
:1029500085F900F073FA0028A1D1C9F80080BFF30F
:102960004F8FBFF36F8F9AE72046FFF777F900F09C
:1029700065FA94E72E2E5C6D6964646C657761720C
:10298000655C4672656552544F535C71756575653B
:102990002E6300004572726F723A2025732C202539
:1029A000640D0A0004ED00E02DE9F04104460D46F7
:1029B000002C05D140F6EF421DA125A0FEF75AF8E4
:1029C0002DB94FF44F621AA121A0FEF753F8FFF77B
:1029D000C3FA234EF2686368D01A3168002791F871
:1029E000591021B1306880F8597001241AE0296823
:1029F000B1F1FF3F09D0D4F800C0366AB44506D023
:102A0000934204D801242F600CE000240AE08142A4
:102A100006D9081A28602046FFF792FC002401E03E
:102A20002F600124FFF7DAFA2046BDE8F0810000AC
:102A30002E2E5C6D6964646C65776172655C4672AC
:102A4000656552544F535C7461736B732E63000061
:102A50004572726F723A2025732C2025640D0A008E
:102A6000280000202DE9FF5F8146DDE90E788A46C7
:102A700016469B46B000FFF72FF9054628000ED0FA
:102A80005C20FFF729F904462CB15C212046FDF7B4
:102A900016FC256304E02846FFF7DAFA00E000247C
:102AA0008CB10020CDE90240CDE900785B4632468A
:102AB00051464846FEF714FE2046FEF7C1FC0120B1
:102AC00004B0BDE8F09F4FF0FF30F9E705484169D9
:102AD000002903D0406B18B10020704701207047D7
:102AE00002207047280000200148C068704700009D
:102AF000280000202DE9F0410025474E706B00288A
:102B000005D0B069401CB0612846BDE8F081F4688A
:102B1000641CF4608CB9B06B006828B140F6B72231
:102B20003EA146A0FDF7A6FFB06BF16BB163F06369
:102B3000306A401C3062FFF713F8B06A434F84429A
:102B40000FD34FF0000CB06B006838B1B06BC068A9
:102B5000C1684868844212D2B06202E04FF0FF3090
:102B6000B0623068C06A00EB800057F8200001288E
:102B700000D90125F0690028C6D00125C4E74A69BB
:102B8000D1E902309860D1E90203586050680B1D0A
:102B9000984201D1C8685060C1F814C01068401E46
:102BA00010608A6A9AB1D1E90780C8F80800D1E9B3
:102BB0000708C8F80400506801F11808404501D121
:102BC000086A5060C1F828C01068401E1060C86ACA
:102BD0000122D6F81080824042EA0802326100EBFE
:102BE000800007EB800042688A609068C860906847
:102BF00043609360C86A00EB800007EB80024A6183
:102C000057F82020521C47F82020C86A3168C96A4A
:102C1000884298D9012596E7280000202E2E5C6D69
:102C20006964646C65776172655C4672656552546F
:102C30004F535C7461736B732E6300004572726F47
:102C4000723A2025732C2025640D0A00E80000202C
:102C500070B50446002600284BD0274D28688442D2
:102C600005D041F2480225A12CA0FDF703FF206DFD
:102C700028B941F2490221A128A0FDF7FBFE206DF1
:102C8000401E2065E26CE16A914232D088BB201D73
:102C9000FFF716F9012130B994F82C002A6901FADE
:102CA00000F082432A61E06CE062C0F12000A06184
:102CB000E06A2A698140114329611C4A00EB8000C7
:102CC00002EB80004068A0608168E1608368211D9C
:102CD00059608160E06A00EB800002EB8000606177
:102CE000E06A00EB800052F82010491C42F82010E6
:102CF0000126304670BD0000280000202E2E5C6D9D
:102D00006964646C65776172655C4672656552548E
:102D10004F535C7461736B732E6300004572726F66
:102D2000723A2025732C2025640D0A00E80000204B
:102D300070B5C068C468002C05D140F6744230A15B
:102D400037A0FDF797FEA06AD4E907128A60D4E99C
:102D500007125160426804F118018A4201D1226AC7
:102D600042600025A5620268521E0260304A506B24
:102D7000012398B12F4D6868E061866826628668F5
:102D800071608160A5622868401C2860E06A116853
:102D9000C96A884231D90120D36170BD6069D4E924
:102DA0000261B160D4E9021671604668211D8E424D
:102DB00001D1E6684660656105686D1E0560E06AE0
:102DC000166903FA00F5354315611B4D00EB8000D1
:102DD00005EB80004068A0608668E66086687160E8
:102DE0008160E06A00EB800005EB8001616155F8CD
:102DF0002010491C45F82010C8E7002070BD0000D5
:102E00002E2E5C6D6964646C65776172655C4672D8
:102E1000656552544F535C7461736B732E6300008D
:102E20004572726F723A2025732C2025640D0A00BA
:102E30002800002090030020E80000202DE9F04148
:102E40000024A046434D686B002805D140F685025A
:102E500041A149A0FDF70EFEFFF77EF8686B401E0A
:102E60006863686B002870D1A86800286DD00027BF
:102E7000454A01264DE0D068C468A16AD4E907300C
:102E80009860D4E9070358604B6804F11800834246
:102E900001D1206A4860A7620868401E0860616925
:102EA000D4E902309860D4E9020358604B68201DD1
:102EB000834201D1E3684B6067610B685B1E0B6066
:102EC000E16AD5F810C006FA01F343EA0C032B615E
:102ED0002E4B01EB810103EB81014968A160D1F820
:102EE00008C0C4F80CC0D1F808C0CCF80400886051
:102EF000E06A00EB800003EB8001616153F8201071
:102F0000491C43F82010E06A2968C96A884200D346
:102F1000EE6110680028AED10CB1FEF721FEAC695D
:102F20003CB1FFF7E7FD00B1EE61641E002CF8D163
:102F3000AF61E86948B14FF0010815494FF0805082
:102F40000860BFF34F8FBFF36F8FFFF747F840461E
:102F5000BDE8F081280000202E2E5C6D6964646C51
:102F600065776172655C4672656552544F535C7457
:102F700061736B732E6300004572726F723A202585
:102F8000732C2025640D0A0090030020E800002027
:102F900004ED00E01CB50024FEF7A8FA0C48006818
:102FA00060B10B481F21001DCDE9001000234FF434
:102FB000807208A10948FFF755FD04462CB940F27C
:102FC000191207A10EA0FDF755FD20461CBD0000FB
:102FD00068000020546D722053766300491C00087D
:102FE0002E2E5C6D6964646C65776172655C4672F7
:102FF000656552544F535C74696D6572732E63003E
:103000004572726F723A2025732C2025640D0A00D8
:103010003030000800000020A8000000940A0008DA
:10302000D8300008A8000020502F0000A40A000893
:10303000007A030A000000000000000001020304FF
:103040000607080900000000000000000000000062
:103050000000000000000000000000000000000070
:103060000000000000000000000000000000000060
:103070000000000000000000000000000000000050
:1030800000000000000000001F0000000000000021
:103090000000000000000000000000000000000030
:1030A0000000000000000000000000000000000020
:1030B0000000000000000000000000000000000010
:1030C000000000000000000000000000AAAAAAAA58
:0830D0000000000000000000F8
:040000050800018965
:00000001FF
